:200000000130FFFFFFFFFFFFFFFFFFC198FFFFFFFFFFFFFFFFFFFFFFFFFFFF052732FFFF11
:20002000FFFFFFFFFFFFFFFFFFFFFFFFFFFFFFFFC2AF758158D114A294B3B007500BC2046B
:200040007550007838793C31B0A294B37207920730061831C320940A116FE5506002D204AD
:200060000550A294B39207312DC20671B00137754C00754D00754E80754F3F753000753116
:200080000075328075333F784C793C51317804794C31B0783C794C51317804792C31B078C0
:2000A00030793851317804793031B07838793051317804793031B07830794831B063338096
:2000C000782C793051CF7804792C31B07848792C51317804794831B0752C00752D00752EC6
:2000E00080752F3F782C794051317804792C31B07848792C51317804794831B0784C793C3E
:2001000051317804794C31B0752CE6752DE9752E1D752F42784C792C51317804794C31B076
:20012000784C794851317804794C31B022752C00752D00752E80752F3F753000753100756B
:20014000328075333F782C793C51317804792C31B0783C792C51317804792C31B0782C792F
:200160003851317804792C31B0782C793851317804792C31B078307948309302794C513175
:200180007804793031B0782C793051317804792C31B0634B80634F80782C79483093027985
:2001A0004C51CF634B80634F807804792C31B0227A04C0E0E6F70809DAFA7A041819DAFCEA
:2001C000D0E0227802C3E53833F538F528E53933F539F529E53A33F53AF52AD8E87838E4E5
:2001E000F53B31FD75333F75327F7531F47530F27838793051317804793831B022799EE45D
:200200007A044608DAFC70087A0418F6DAFC413018E620E70F197A04C3181818E633F60824
:20022000DAFA4110E9C313C61892E7C618C618F622751200751300751400861508861608D0
:200240008617431780751800751900751A00871B09871C09871D431D80E8C0E0E9C0E07B16
:2002600018781279187A06C3E697F60809DAF992D5B3EC33FCED33FDEE33FE30D50E7812A3
:2002800079187A06C3E637F60809DAF9791D7A06C3E713F719DAFADBC8D0E0F9D0E0F8E701
:2002A0000933E733F5F0E60833E633C395F0247FFFEE20E70BC3EC33FCED33FDEE33FE1FA6
:2002C000C3EF13FFEE92E7FEE66754804FFF22080908090809E6673392D5E630E703C8C9B9
:2002E000C8861718E63308E633F5161886156003431580188614188613751200871D19E7C0
:200300003309E733F51C19871B6003431B8019871A1987197518007816791CC3E76017E650
:2003200060149760115003C8C9C8077A04C319E713F7DAFA6117E67002E7F6781279187A2D
:2003400004C320D515E637F60809DAF9504606E67A0418E613F6DAFA6194E697F60809DAA7
:20036000F950117A04E824FCF8E6F43400F608DAF86317807A04E41846DAFC7004F5166157
:2003800094E51533400E78127A04C3E633F608DAFA166181E5175480FFE516C3134FFFE5CD
:2003A0001592E7FEAD14AC1322C292D1E7D29222748071A97443309302744CD1E77478D1BE
:2003C000E7743DD1E790054F75F00030930375F005E5F0C394155031E5F02323F53004F559
:2003E0003304F5320493C53093C53393C53293F53105F0E52E33E52F33600EF8E53233E52E
:200400003333C8C39824F140C8C0F0782C793051317804793431B078347912B1D1A2D592EB
:2004200003D0F07403C5F084A8F09005A3791C93F7197720300302772D19E515C4540F2473
:2004400030F719E515540F2430F719E514C4540F2430F719E514540F2430F719E513C45447
:200460000F2430F719E87003772E19E513540F2430F719E824FF7003772E19E512C4540FD7
:200480002430F719E824FE7003772E19E512540F2430F7E51BD1E7E51A24D06006E51AD137
:2004A000E781A9E51924D06006E519D1E781B5E51824D06006E518D1E781C3E51724D0782F
:2004C000206002A817E8D1E7E516D1E7E515D1E7E514D1E7E513D1E7E512D1E77420D1E77A
:2004E000E51CD1E72093067446D1E781F17448D1E77420D1E77420D1E77420D1E778287935
:2005000012B1C374C071A9E514D1BEE513D1BEE512D1BE7420D1E77448D1E7747AD1E77498
:2005200020D1E77420D1E77420D1E72004107421D1E7744ED1E77475D1E7746CC1E7742093
:20054000D1E77420D1E77420D1E77420D1E722283424DC29E12E132B8CBCCC2D2FEBFF2E83
:20056000DBE6FF3089705F322BCC7733D6BF95358637BD3727C5AC38D1B7173A83126F3C67
:2005800023D70A3DCCCCCD3F8000004120000042C80000447A0000461C400047C350004988
:2005A000742400706E006D206B4D473392B03392B13392B23392B37478F114D9FAD2B40015
:2005C000C2B422E6FB08E6FC08E6FD18187A17A1EA88F0E6FB08E6FC08E6FE4480FD08EE9B
:2005E00033E63392D52481FAA8F089F07E04E4F709DEFCA9F0EA33401AEB33FBEC33FCED27
:2006000033FD89F07E04E735E0D4F709DEF8A9F01AA1F522C3750E30C2B4C292743079142D
:20062000B1AB74307905B1AB74307901B1AB74207901B1AB758952E4F5A8F5B8F58A758CFE
:20064000C0D2A9D2ABD2BBD2AFD28CD28E7478F1147428D1E77478F114740CD1E77406D15D
:20066000E7744071A97400D1E77400D1E77411D1E77411D1E77411D1E77413D1E7741DD115
:20068000E77410D1E7748071A9C20475408775411075428875433022D50E22750E24D50F88
:2006A0001C750F64C0E0C0D0E4C58BF538E4C58DF539E4C527F53AD206D0D0D0E032C2D551
:2006C0007B02C0E054F0C42430C0E0C3943AD0E040022407D1E730D508EB20E004742ED12C
:2006E000E7D0E0C4DBDC22C0E07405F114D0E03392B03392B13392B23392B300D2B400C2D6
:20070000B43392B03392B13392B23392B300D2B400C2B422C0E074027401D5E0FDD0E0D56B
:03072000E0F222E2
:00000001FF
